{
    "abi": [
        {
            "type": "constructor",
            "inputs": [
                {
                    "name": "_avsDirectory",
                    "type": "address",
                    "internalType": "address"
                },
                {
                    "name": "_stakeRegistry",
                    "type": "address",
                    "internalType": "address"
                },
                {
                    "name": "_rewardsCoordinator",
                    "type": "address",
                    "internalType": "address"
                },
                {
                    "name": "_delegationManager",
                    "type": "address",
                    "internalType": "address"
                },
                {
                    "name": "_allocationManager",
                    "type": "address",
                    "internalType": "address"
                },
                {
                    "name": "_hook",
                    "type": "address",
                    "internalType": "address"
                }
            ],
            "stateMutability": "nonpayable"
        },
        {
            "type": "function",
            "name": "addPendingAdmin",
            "inputs": [
                {
                    "name": "admin",
                    "type": "address",
                    "internalType": "address"
                }
            ],
            "outputs": [],
            "stateMutability": "nonpayable"
        },
        {
            "type": "function",
            "name": "allTaskHashes",
            "inputs": [
                {
                    "name": "",
                    "type": "uint32",
                    "internalType": "uint32"
                }
            ],
            "outputs": [
                {
                    "name": "",
                    "type": "bytes32",
                    "internalType": "bytes32"
                }
            ],
            "stateMutability": "view"
        },
        {
            "type": "function",
            "name": "allTaskResponses",
            "inputs": [
                {
                    "name": "",
                    "type": "address",
                    "internalType": "address"
                },
                {
                    "name": "",
                    "type": "uint32",
                    "internalType": "uint32"
                }
            ],
            "outputs": [
                {
                    "name": "",
                    "type": "bytes",
                    "internalType": "bytes"
                }
            ],
            "stateMutability": "view"
        },
        {
            "type": "function",
            "name": "allocationManager",
            "inputs": [],
            "outputs": [
                {
                    "name": "",
                    "type": "address",
                    "internalType": "address"
                }
            ],
            "stateMutability": "view"
        },
        {
            "type": "function",
            "name": "avsDirectory",
            "inputs": [],
            "outputs": [
                {
                    "name": "",
                    "type": "address",
                    "internalType": "address"
                }
            ],
            "stateMutability": "view"
        },
        {
            "type": "function",
            "name": "createAVSRewardsSubmission",
            "inputs": [
                {
                    "name": "rewardsSubmissions",
                    "type": "tuple[]",
                    "internalType": "struct IRewardsCoordinatorTypes.RewardsSubmission[]",
                    "components": [
                        {
                            "name": "strategiesAndMultipliers",
                            "type": "tuple[]",
                            "internalType": "struct IRewardsCoordinatorTypes.StrategyAndMultiplier[]",
                            "components": [
                                {
                                    "name": "strategy",
                                    "type": "address",
                                    "internalType": "contract IStrategy"
                                },
                                {
                                    "name": "multiplier",
                                    "type": "uint96",
                                    "internalType": "uint96"
                                }
                            ]
                        },
                        {
                            "name": "token",
                            "type": "address",
                            "internalType": "contract IERC20"
                        },
                        {
                            "name": "amount",
                            "type": "uint256",
                            "internalType": "uint256"
                        },
                        {
                            "name": "startTimestamp",
                            "type": "uint32",
                            "internalType": "uint32"
                        },
                        {
                            "name": "duration",
                            "type": "uint32",
                            "internalType": "uint32"
                        }
                    ]
                }
            ],
            "outputs": [],
            "stateMutability": "nonpayable"
        },
        {
            "type": "function",
            "name": "createNewTask",
            "inputs": [
                {
                    "name": "poolId",
                    "type": "bytes32",
                    "internalType": "bytes32"
                },
                {
                    "name": "tickLower",
                    "type": "int24",
                    "internalType": "int24"
                },
                {
                    "name": "tickUpper",
                    "type": "int24",
                    "internalType": "int24"
                },
                {
                    "name": "tickSpacing",
                    "type": "int24",
                    "internalType": "int24"
                },
                {
                    "name": "activeTick",
                    "type": "int24",
                    "internalType": "int24"
                },
                {
                    "name": "tickLiquidities",
                    "type": "uint256[]",
                    "internalType": "uint256[]"
                }
            ],
            "outputs": [],
            "stateMutability": "nonpayable"
        },
        {
            "type": "function",
            "name": "createOperatorDirectedAVSRewardsSubmission",
            "inputs": [
                {
                    "name": "operatorDirectedRewardsSubmissions",
                    "type": "tuple[]",
                    "internalType": "struct IRewardsCoordinatorTypes.OperatorDirectedRewardsSubmission[]",
                    "components": [
                        {
                            "name": "strategiesAndMultipliers",
                            "type": "tuple[]",
                            "internalType": "struct IRewardsCoordinatorTypes.StrategyAndMultiplier[]",
                            "components": [
                                {
                                    "name": "strategy",
                                    "type": "address",
                                    "internalType": "contract IStrategy"
                                },
                                {
                                    "name": "multiplier",
                                    "type": "uint96",
                                    "internalType": "uint96"
                                }
                            ]
                        },
                        {
                            "name": "token",
                            "type": "address",
                            "internalType": "contract IERC20"
                        },
                        {
                            "name": "operatorRewards",
                            "type": "tuple[]",
                            "internalType": "struct IRewardsCoordinatorTypes.OperatorReward[]",
                            "components": [
                                {
                                    "name": "operator",
                                    "type": "address",
                                    "internalType": "address"
                                },
                                {
                                    "name": "amount",
                                    "type": "uint256",
                                    "internalType": "uint256"
                                }
                            ]
                        },
                        {
                            "name": "startTimestamp",
                            "type": "uint32",
                            "internalType": "uint32"
                        },
                        {
                            "name": "duration",
                            "type": "uint32",
                            "internalType": "uint32"
                        },
                        {
                            "name": "description",
                            "type": "string",
                            "internalType": "string"
                        }
                    ]
                }
            ],
            "outputs": [],
            "stateMutability": "nonpayable"
        },
        {
            "type": "function",
            "name": "deregisterOperatorFromAVS",
            "inputs": [
                {
                    "name": "operator",
                    "type": "address",
                    "internalType": "address"
                }
            ],
            "outputs": [],
            "stateMutability": "nonpayable"
        },
        {
            "type": "function",
            "name": "deregisterOperatorFromOperatorSets",
            "inputs": [
                {
                    "name": "operator",
                    "type": "address",
                    "internalType": "address"
                },
                {
                    "name": "operatorSetIds",
                    "type": "uint32[]",
                    "internalType": "uint32[]"
                }
            ],
            "outputs": [],
            "stateMutability": "nonpayable"
        },
        {
            "type": "function",
            "name": "getOperatorRestakedStrategies",
            "inputs": [
                {
                    "name": "_operator",
                    "type": "address",
                    "internalType": "address"
                }
            ],
            "outputs": [
                {
                    "name": "",
                    "type": "address[]",
                    "internalType": "address[]"
                }
            ],
            "stateMutability": "view"
        },
        {
            "type": "function",
            "name": "getRestakeableStrategies",
            "inputs": [],
            "outputs": [
                {
                    "name": "",
                    "type": "address[]",
                    "internalType": "address[]"
                }
            ],
            "stateMutability": "view"
        },
        {
            "type": "function",
            "name": "hook",
            "inputs": [],
            "outputs": [
                {
                    "name": "",
                    "type": "address",
                    "internalType": "address"
                }
            ],
            "stateMutability": "view"
        },
        {
            "type": "function",
            "name": "latestTaskNum",
            "inputs": [],
            "outputs": [
                {
                    "name": "",
                    "type": "uint32",
                    "internalType": "uint32"
                }
            ],
            "stateMutability": "view"
        },
        {
            "type": "function",
            "name": "owner",
            "inputs": [],
            "outputs": [
                {
                    "name": "",
                    "type": "address",
                    "internalType": "address"
                }
            ],
            "stateMutability": "view"
        },
        {
            "type": "function",
            "name": "registerOperatorToAVS",
            "inputs": [
                {
                    "name": "operator",
                    "type": "address",
                    "internalType": "address"
                },
                {
                    "name": "operatorSignature",
                    "type": "tuple",
                    "internalType": "struct ISignatureUtilsMixinTypes.SignatureWithSaltAndExpiry",
                    "components": [
                        {
                            "name": "signature",
                            "type": "bytes",
                            "internalType": "bytes"
                        },
                        {
                            "name": "salt",
                            "type": "bytes32",
                            "internalType": "bytes32"
                        },
                        {
                            "name": "expiry",
                            "type": "uint256",
                            "internalType": "uint256"
                        }
                    ]
                }
            ],
            "outputs": [],
            "stateMutability": "nonpayable"
        },
        {
            "type": "function",
            "name": "removeAdmin",
            "inputs": [
                {
                    "name": "admin",
                    "type": "address",
                    "internalType": "address"
                }
            ],
            "outputs": [],
            "stateMutability": "nonpayable"
        },
        {
            "type": "function",
            "name": "removeAppointee",
            "inputs": [
                {
                    "name": "appointee",
                    "type": "address",
                    "internalType": "address"
                },
                {
                    "name": "target",
                    "type": "address",
                    "internalType": "address"
                },
                {
                    "name": "selector",
                    "type": "bytes4",
                    "internalType": "bytes4"
                }
            ],
            "outputs": [],
            "stateMutability": "nonpayable"
        },
        {
            "type": "function",
            "name": "removePendingAdmin",
            "inputs": [
                {
                    "name": "pendingAdmin",
                    "type": "address",
                    "internalType": "address"
                }
            ],
            "outputs": [],
            "stateMutability": "nonpayable"
        },
        {
            "type": "function",
            "name": "renounceOwnership",
            "inputs": [],
            "outputs": [],
            "stateMutability": "nonpayable"
        },
        {
            "type": "function",
            "name": "respondToTask",
            "inputs": [
                {
                    "name": "task",
                    "type": "tuple",
                    "internalType": "struct OracleServiceManager.Task",
                    "components": [
                        {
                            "name": "poolId",
                            "type": "bytes32",
                            "internalType": "bytes32"
                        },
                        {
                            "name": "tickLower",
                            "type": "int24",
                            "internalType": "int24"
                        },
                        {
                            "name": "tickUpper",
                            "type": "int24",
                            "internalType": "int24"
                        },
                        {
                            "name": "tickSpacing",
                            "type": "int24",
                            "internalType": "int24"
                        },
                        {
                            "name": "activeTick",
                            "type": "int24",
                            "internalType": "int24"
                        },
                        {
                            "name": "tickLiquidities",
                            "type": "uint256[]",
                            "internalType": "uint256[]"
                        }
                    ]
                },
                {
                    "name": "referenceTaskIndex",
                    "type": "uint32",
                    "internalType": "uint32"
                },
                {
                    "name": "poolMetrics",
                    "type": "tuple",
                    "internalType": "struct IOracleHook.PoolMetrics",
                    "components": [
                        {
                            "name": "liqTransition",
                            "type": "uint256",
                            "internalType": "uint256"
                        },
                        {
                            "name": "volatility",
                            "type": "uint256",
                            "internalType": "uint256"
                        },
                        {
                            "name": "depth",
                            "type": "uint256",
                            "internalType": "uint256"
                        },
                        {
                            "name": "spread",
                            "type": "uint256",
                            "internalType": "uint256"
                        },
                        {
                            "name": "liqConcentration",
                            "type": "uint256",
                            "internalType": "uint256"
                        }
                    ]
                },
                {
                    "name": "signature",
                    "type": "bytes",
                    "internalType": "bytes"
                }
            ],
            "outputs": [],
            "stateMutability": "nonpayable"
        },
        {
            "type": "function",
            "name": "rewardsInitiator",
            "inputs": [],
            "outputs": [
                {
                    "name": "",
                    "type": "address",
                    "internalType": "address"
                }
            ],
            "stateMutability": "view"
        },
        {
            "type": "function",
            "name": "setAVSRegistrar",
            "inputs": [
                {
                    "name": "registrar",
                    "type": "address",
                    "internalType": "contract IAVSRegistrar"
                }
            ],
            "outputs": [],
            "stateMutability": "nonpayable"
        },
        {
            "type": "function",
            "name": "setAppointee",
            "inputs": [
                {
                    "name": "appointee",
                    "type": "address",
                    "internalType": "address"
                },
                {
                    "name": "target",
                    "type": "address",
                    "internalType": "address"
                },
                {
                    "name": "selector",
                    "type": "bytes4",
                    "internalType": "bytes4"
                }
            ],
            "outputs": [],
            "stateMutability": "nonpayable"
        },
        {
            "type": "function",
            "name": "setClaimerFor",
            "inputs": [
                {
                    "name": "claimer",
                    "type": "address",
                    "internalType": "address"
                }
            ],
            "outputs": [],
            "stateMutability": "nonpayable"
        },
        {
            "type": "function",
            "name": "setRewardsInitiator",
            "inputs": [
                {
                    "name": "newRewardsInitiator",
                    "type": "address",
                    "internalType": "address"
                }
            ],
            "outputs": [],
            "stateMutability": "nonpayable"
        },
        {
            "type": "function",
            "name": "stakeRegistry",
            "inputs": [],
            "outputs": [
                {
                    "name": "",
                    "type": "address",
                    "internalType": "address"
                }
            ],
            "stateMutability": "view"
        },
        {
            "type": "function",
            "name": "transferOwnership",
            "inputs": [
                {
                    "name": "newOwner",
                    "type": "address",
                    "internalType": "address"
                }
            ],
            "outputs": [],
            "stateMutability": "nonpayable"
        },
        {
            "type": "function",
            "name": "updateAVSMetadataURI",
            "inputs": [
                {
                    "name": "_metadataURI",
                    "type": "string",
                    "internalType": "string"
                }
            ],
            "outputs": [],
            "stateMutability": "nonpayable"
        },
        {
            "type": "event",
            "name": "Initialized",
            "inputs": [
                {
                    "name": "version",
                    "type": "uint8",
                    "indexed": false,
                    "internalType": "uint8"
                }
            ],
            "anonymous": false
        },
        {
            "type": "event",
            "name": "NewTaskCreated",
            "inputs": [
                {
                    "name": "taskIndex",
                    "type": "uint32",
                    "indexed": true,
                    "internalType": "uint32"
                },
                {
                    "name": "task",
                    "type": "tuple",
                    "indexed": false,
                    "internalType": "struct OracleServiceManager.Task",
                    "components": [
                        {
                            "name": "poolId",
                            "type": "bytes32",
                            "internalType": "bytes32"
                        },
                        {
                            "name": "tickLower",
                            "type": "int24",
                            "internalType": "int24"
                        },
                        {
                            "name": "tickUpper",
                            "type": "int24",
                            "internalType": "int24"
                        },
                        {
                            "name": "tickSpacing",
                            "type": "int24",
                            "internalType": "int24"
                        },
                        {
                            "name": "activeTick",
                            "type": "int24",
                            "internalType": "int24"
                        },
                        {
                            "name": "tickLiquidities",
                            "type": "uint256[]",
                            "internalType": "uint256[]"
                        }
                    ]
                }
            ],
            "anonymous": false
        },
        {
            "type": "event",
            "name": "OwnershipTransferred",
            "inputs": [
                {
                    "name": "previousOwner",
                    "type": "address",
                    "indexed": true,
                    "internalType": "address"
                },
                {
                    "name": "newOwner",
                    "type": "address",
                    "indexed": true,
                    "internalType": "address"
                }
            ],
            "anonymous": false
        },
        {
            "type": "event",
            "name": "RewardsInitiatorUpdated",
            "inputs": [
                {
                    "name": "prevRewardsInitiator",
                    "type": "address",
                    "indexed": false,
                    "internalType": "address"
                },
                {
                    "name": "newRewardsInitiator",
                    "type": "address",
                    "indexed": false,
                    "internalType": "address"
                }
            ],
            "anonymous": false
        },
        {
            "type": "event",
            "name": "TaskResponded",
            "inputs": [
                {
                    "name": "taskIndex",
                    "type": "uint32",
                    "indexed": true,
                    "internalType": "uint32"
                },
                {
                    "name": "task",
                    "type": "tuple",
                    "indexed": false,
                    "internalType": "struct OracleServiceManager.Task",
                    "components": [
                        {
                            "name": "poolId",
                            "type": "bytes32",
                            "internalType": "bytes32"
                        },
                        {
                            "name": "tickLower",
                            "type": "int24",
                            "internalType": "int24"
                        },
                        {
                            "name": "tickUpper",
                            "type": "int24",
                            "internalType": "int24"
                        },
                        {
                            "name": "tickSpacing",
                            "type": "int24",
                            "internalType": "int24"
                        },
                        {
                            "name": "activeTick",
                            "type": "int24",
                            "internalType": "int24"
                        },
                        {
                            "name": "tickLiquidities",
                            "type": "uint256[]",
                            "internalType": "uint256[]"
                        }
                    ]
                },
                {
                    "name": "operator",
                    "type": "address",
                    "indexed": false,
                    "internalType": "address"
                }
            ],
            "anonymous": false
        },
        {
            "type": "error",
            "name": "DelayPeriodNotPassed",
            "inputs": []
        },
        {
            "type": "error",
            "name": "OnlyRegistryCoordinator",
            "inputs": []
        },
        {
            "type": "error",
            "name": "OnlyRewardsInitiator",
            "inputs": []
        },
        {
            "type": "error",
            "name": "OnlyStakeRegistry",
            "inputs": []
        },
        {
            "type": "error",
            "name": "OracleHook__InvalidSignature",
            "inputs": []
        },
        {
            "type": "error",
            "name": "OracleServiceManager__AlreadyResponded",
            "inputs": []
        },
        {
            "type": "error",
            "name": "OracleServiceManager__OnlyHook",
            "inputs": []
        },
        {
            "type": "error",
            "name": "OracleServiceManager__OnlyOperator",
            "inputs": []
        },
        {
            "type": "error",
            "name": "OracleServiceManager__TaskMismatch",
            "inputs": []
        }
    ],
    "bytecode": {
        "object": "0x610120346101e957601f61254b38819003918201601f19168301916001600160401b038311848410176101ed5780849260c0946040528339810103126101e95761004881610201565b9061005560208201610201565b61006160408301610201565b61006d60608401610201565b9161008660a061007f60808701610201565b9501610201565b9460a05260805260e0526101005260c0525f5460ff8160081c166101945760ff8082160361015a575b50609780546001600160a01b0319166001600160a01b0392909216919091179055604051612335908161021682396080518181816104fd015281816106be01528181610d53015281816112010152818161142301526116cd015260a051818181610cca01528181610d850152818161122901526113df015260c05181818161047101526105c4015260e05181818161019a01528181610e3901526110f8015261010051816117930152f35b60ff90811916175f557f7f26b83ff96e1f2b6a682f133852f6798a09c465da95921460cefb3847402498602060405160ff8152a15f6100af565b60405162461bcd60e51b815260206004820152602760248201527f496e697469616c697a61626c653a20636f6e747261637420697320696e697469604482015266616c697a696e6760c81b6064820152608490fd5b5f80fd5b634e487b7160e01b5f52604160045260245ffd5b51906001600160a01b03821682036101e95756fe6080806040526004361015610012575f80fd5b5f905f3560e01c9081631785f53c146111605781631fdb0cfd14610c78578163279432eb146111605781632d89f6fc1461196e5750806333cfb7b7146116a057806335943922146114d15780633bc28c8c14611452578063683048351461140e5780636b3aa72e146113ca578063715018a61461136f5780637f5a7c7b146113475780638b00ce7c146113215780638da5cb5b146112f95780639926ee7d146111655780639da16d8e14611160578063a0169ddd146110d3578063a20b99bf14610dfc578063a364f4da14610d37578063a98fb35514610c7d578063ba55088014610c78578063c1a8e2c514610be3578063c20bab7f14610ae4578063c90e443d146105f3578063ca8aa7c7146105ae578063e481af9d146104d8578063f25f16101461043f578063f2fde38b14610376578063fc299dee1461034d5763fce36c7d1461015d575f80fd5b3461023a57602036600319011261023a576004356001600160401b0381116103495761018d903690600401611b50565b610198929192611ef9565b7f0000000000000000000000000000000000000000000000000000000000000000825b8281106102e557506001600160a01b031690813b156102e1576040519363fce36c7d60e01b8552816024860160206004880152526044850160448360051b87010192828690609e19813603015b8383106102485788808b8181808c0381838f5af1801561023d576102295750f35b8161023391611aa9565b61023a5780f35b80fd5b6040513d84823e3d90fd5b9091929394956043198a82030186528635828112156102dd5760206001928582930190608063ffffffff6102cb826102916102838780611f94565b60a0885260a0880191611fc8565b95898060a01b036102a38983016119b9565b168887015260408101356040870152836102bf60608301611a48565b16606087015201611a48565b16910152980196019493019190610208565b8980fd5b8280fd5b8061031a61030160206102fb600195888b61202c565b01611f80565b604061030e84888b61202c565b0135903090339061204e565b61034361032d60206102fb84888b61202c565b84604061033b85898c61202c565b013591612099565b016101bb565b5080fd5b503461023a578060031936011261023a576065546040516001600160a01b039091168152602090f35b503461023a57602036600319011261023a576103906119a3565b610398611ea1565b6001600160a01b031680156103eb57603380546001600160a01b0319811683179091556001600160a01b03167f8be0079c531659141344cd1fd0a4f28419497f9722a3daafe3b4186f6b6457e08380a380f35b60405162461bcd60e51b815260206004820152602660248201527f4f776e61626c653a206e6577206f776e657220697320746865207a65726f206160448201526564647265737360d01b6064820152608490fd5b503461023a57602036600319011261023a57806004356001600160a01b038116908190036104d55761046f611ea1565b7f00000000000000000000000000000000000000000000000000000000000000006001600160a01b031690813b156104d35782916044839260405194859384926334f65bfd60e21b845230600485015260248401525af1801561023d576102295750f35b505b50fd5b503461023a578060031936011261023a576040516302e0740360e31b815281816004817f00000000000000000000000000000000000000000000000000000000000000006001600160a01b03165afa90811561023d57829161058c575b50610541815151611e6f565b915b8151805182101561057a57600191906001600160a01b0390610566908390611e39565b5151166105738286611e39565b5201610543565b604051806105888682611a59565b0390f35b6105a891503d8084833e6105a08183611aa9565b810190611d27565b5f610535565b503461023a578060031936011261023a576040517f00000000000000000000000000000000000000000000000000000000000000006001600160a01b03168152602090f35b503461023a5761010036600319011261023a57600435906001600160401b03821161023a5760c08260040192600319903603011261023a57610633611a35565b60a0366043190112610349576040519260a084018481106001600160401b03821117610ad057604052604435845260208401606435815260408501906084358252606086019060a43582526080870160c435815260e4356001600160401b038111610acc576106a6903690600401611b32565b60405163ec7fbb3160e01b81523360048201529098907f00000000000000000000000000000000000000000000000000000000000000006001600160a01b031690602081602481855afa908115610ac1578a91610a92575b5015610a835763ffffffff60405160208101906020825261073481610726604082018d611c74565b03601f198101835282611aa9565b519020981697888a52609860205260408a205403610a7457338952609960205260408920885f5260205261076b60405f2054611b80565b610a655760208a6107e8928960405161079281610726878201948886526040830190611c74565b5190207f19457468657265756d205369676e6564204d6573736167653a0a3332000000008d52601c52603c8c20604051809581948293630b135d3f60e11b84526004840152604060248401526044830190611bb8565b03915afa908115610a5a578991610a13575b506001600160e01b031916630b135d3f60e11b03610a0457338852609960205260408820875f5260205260405f2089516001600160401b0381116109f0576108428254611b80565b601f81116109ab575b506020601f82116001146109455781908b9c8c9a9b9c9261093a575b50508160011b915f199060031b1c19161790555b6097546001600160a01b031693843b1561093657869460c4938692604051988997889663309baf9560e21b88528d3560048901525160248801525160448701525160648601525160848501525160a48401525af1801561023d57610921575b50506109157f54c815510df451083a0ca7fc66dfe80e888064cca829d2a015fdab57a972d84291604051918291604083526040830190611c74565b3360208301520390a280f35b8161092b91611aa9565b6102e157825f6108da565b8680fd5b015190505f80610867565b828b52808b209b601f1983168c5b8181106109935750918c9d9184600195949e9c9d9e1061097b575b505050811b01905561087b565b01515f1960f88460031b161c191690555f808061096e565b838301518f556001909e019d60209384019301610953565b828b5260208b20601f830160051c810191602084106109e6575b601f0160051c01905b8181106109db575061084b565b8b81556001016109ce565b90915081906109c5565b634e487b7160e01b8a52604160045260248afd5b632d79ff9760e01b8852600488fd5b90506020813d602011610a52575b81610a2e60209383611aa9565b81010312610a4e57516001600160e01b031981168103610a4e575f6107fa565b8880fd5b3d9150610a21565b6040513d8b823e3d90fd5b63046600c360e01b8952600489fd5b630508f21f60e11b8952600489fd5b631a70db5360e01b8952600489fd5b610ab4915060203d602011610aba575b610aac8183611aa9565b810190611c5c565b5f6106fe565b503d610aa2565b6040513d8c823e3d90fd5b8780fd5b634e487b7160e01b84526041600452602484fd5b503461023a57604036600319011261023a57610afe6119a3565b610b06611a35565b9060018060a01b03168252609960205263ffffffff6040832091165f5260205260405f20906040519181815491610b3c83611b80565b8086529260018116908115610bb95750600114610b78575b61058885610b6481870382611aa9565b604051918291602083526020830190611bb8565b815260208120939250905b808210610b9f57509091508101602001610b6482610588610b54565b919260018160209254838588010152019101909291610b83565b86955061058896935060209250610b6494915060ff191682840152151560051b8201019293610b54565b503461023a57604036600319011261023a57610bfd6119a3565b506024356001600160401b038111610349573660238201121561034957806004013560246020610c2c83611aca565b610c396040519182611aa9565b838152019160051b83010191368311610c7457602401905b828210610c5c578380f35b60208091610c6984611a48565b815201910190610c51565b8380fd5b6119e6565b503461023a57602036600319011261023a57806004356001600160401b0381116104d557366023820112156104d557610cc0903690602481600401359101611afc565b610cc8611ea1565b7f00000000000000000000000000000000000000000000000000000000000000006001600160a01b0316803b156104d35760405163a98fb35560e01b8152602060048201529183918391829084908290610d26906024830190611bb8565b03925af1801561023d576102295750f35b503461023a57602036600319011261023a57610d516119a3565b7f00000000000000000000000000000000000000000000000000000000000000006001600160a01b03163303610ded5781907f00000000000000000000000000000000000000000000000000000000000000006001600160a01b031690813b156104d3576040516351b27a6d60e11b81526001600160a01b0390911660048201529082908290602490829084905af1801561023d576102295750f35b6346bf228160e01b8252600482fd5b503461023a57602036600319011261023a576004356001600160401b03811161034957610e2d903690600401611b50565b9190610e37611ef9565b7f0000000000000000000000000000000000000000000000000000000000000000825b84811061101e57506001600160a01b0316803b156102e15760409391935191634e5cd2fd60e11b8352806044840130600486015260406024860152526064830160648260051b850101918691869760be19813603015b838a10610ed1578880898181808b0381838e5af1801561023d576102295750f35b90919293946063198882030184528535828112156102dd57830190610f07610ef98380611f94565b60c0845260c0840191611fc8565b916001600160a01b03610f1c602083016119b9565b1660208301526020610f316040830183611f94565b848603604086015280865294909101938c905b808210610fee5750505063ffffffff610f5f60608301611a48565b16606083015263ffffffff610f7660808301611a48565b16608083015260a0810135601e1982360301811215610fea570190602082359201906001600160401b038311610fea578236038213610fea57838360209485948460a0879660019a03910152818452848401378d838284010152601f80199101160101970194019901989190939293610eb0565b8b80fd5b909194604080600192838060a01b036110068a6119b9565b16815260208901356020820152019601920190610f44565b90929193829483955b61103f611035858585611f1c565b6040810190611f3e565b905087101561108f57611056611035858585611f1c565b88101561107b576001916020611073928a60061b01013590611f73565b960195611027565b634e487b7160e01b86526032600452602486fd5b9195509293916001916110cd906110b78130336110b260206102fb898f8e611f1c565b61204e565b846110c860206102fb868c8b611f1c565b612099565b01610e5a565b503461023a57602036600319011261023a57806110ee6119a3565b6110f6611ea1565b7f00000000000000000000000000000000000000000000000000000000000000006001600160a01b031690813b156104d35760405163a0169ddd60e01b81526001600160a01b0390911660048201529082908290602490829084905af1801561023d576102295750f35b6119cd565b50346112d25760403660031901126112d25761117f6119a3565b602435906001600160401b0382116112d257606060031983360301126112d25760405190606082018281106001600160401b038211176112e55760405282600401356001600160401b0381116112d2576111df9060043691860101611b32565b8252602082019160248401358352604460408201940135845260018060a01b037f00000000000000000000000000000000000000000000000000000000000000001633036112d6577f00000000000000000000000000000000000000000000000000000000000000006001600160a01b031690813b156112d2575f61129a93819560405197889687958694639926ee7d60e01b865260018060a01b0316600486015260406024860152516060604486015260a4850190611bb8565b9151606484015251608483015203925af180156112c7576112b9575080f35b6112c591505f90611aa9565b005b6040513d5f823e3d90fd5b5f80fd5b6346bf228160e01b5f5260045ffd5b634e487b7160e01b5f52604160045260245ffd5b346112d2575f3660031901126112d2576033546040516001600160a01b039091168152602090f35b346112d2575f3660031901126112d257602063ffffffff60975460a01c16604051908152f35b346112d2575f3660031901126112d2576097546040516001600160a01b039091168152602090f35b346112d2575f3660031901126112d257611387611ea1565b603380546001600160a01b031981169091555f906001600160a01b03167f8be0079c531659141344cd1fd0a4f28419497f9722a3daafe3b4186f6b6457e08280a3005b346112d2575f3660031901126112d2576040517f00000000000000000000000000000000000000000000000000000000000000006001600160a01b03168152602090f35b346112d2575f3660031901126112d2576040517f00000000000000000000000000000000000000000000000000000000000000006001600160a01b03168152602090f35b346112d25760203660031901126112d25761146b6119a3565b611473611ea1565b606554604080516001600160a01b038084168252841660208201529192917fe11cddf1816a43318ca175bbc52cd0185436e9cbead7c83acc54a73e461717e39190a16001600160a01b03166001600160a01b03199190911617606555005b346112d25760c03660031901126112d2576024358060020b8091036112d2576044358060020b8091036112d2576064358060020b8091036112d2576084358060020b8091036112d25760a435916001600160401b0383116112d257366023840112156112d25782600401359261154684611aca565b936115546040519586611aa9565b8085526024602086019160051b830101913683116112d257602401905b8282106116905750506097549490506001600160a01b0385163303611681576040519560c087018781106001600160401b038211176112e5576040526004358752602087015260408601526060850152608084015260a083015263ffffffff60405160208101906115e6816107268785611bdc565b5190209160a01c165f52609860205260405f205561163b609754917f4c649801e37f9df0488acf19c3e3636338e88d9a504f79ebb09fa9e22607c84b63ffffffff8460a01c1692839260405191829182611bdc565b0390a263ffffffff811461166d5763ffffffff60a01b1990911660019190910160a01b63ffffffff60a01b1617609755005b634e487b7160e01b5f52601160045260245ffd5b630945ad2160e01b5f5260045ffd5b8135815260209182019101611571565b346112d25760203660031901126112d2576116b96119a3565b6040516302e0740360e31b81525f816004817f00000000000000000000000000000000000000000000000000000000000000006001600160a01b03165afa9081156112c7575f91611954575b50908151519061171482611aca565b906117226040519283611aa9565b82825261172e83611aca565b602083019490601f19013686375f5b84811061192657505060408051639004134760e01b81526001600160a01b0390921660048301526024820152815160448201819052909384916064830191905f5b81811061190457505f939283900391508290507f00000000000000000000000000000000000000000000000000000000000000006001600160a01b03165afa9283156112c7575f93611872575b505f5f5b83811061184657506117e090611e6f565b925f905f5b8481106117fa57604051806105888882611a59565b6118048183611e39565b51611812575b6001016117e5565b9160019061183e906001600160a01b0361182c8688611e39565b5116611838828a611e39565b52611e61565b92905061180a565b6118508186611e39565b5161185e575b6001016117cf565b9061186a600191611e61565b919050611856565b9092503d805f833e6118848183611aa9565b8101906020818303126112d2578051906001600160401b0382116112d257019080601f830112156112d25781516118ba81611aca565b926118c86040519485611aa9565b81845260208085019260051b8201019283116112d257602001905b8282106118f45750505091836117cb565b81518152602091820191016118e3565b82516001600160a01b031684528794506020938401939092019160010161177e565b600190818060a09895981b0361193d828551611e39565b51511661194a8287611e39565b520194919461173d565b61196891503d805f833e6105a08183611aa9565b82611705565b346112d25760203660031901126112d2576004359063ffffffff82168092036112d2576020915f526098825260405f20548152f35b600435906001600160a01b03821682036112d257565b35906001600160a01b03821682036112d257565b346112d25760203660031901126112d2576112c56119a3565b346112d25760603660031901126112d2576004356001600160a01b03811681036112d257506024356001600160a01b03811681036112d257506044356001600160e01b0319811681036112d257005b6024359063ffffffff821682036112d257565b359063ffffffff821682036112d257565b60206040818301928281528451809452019201905f5b818110611a7c5750505090565b82516001600160a01b0316845260209384019390920191600101611a6f565b35908160020b82036112d257565b90601f801991011681019081106001600160401b038211176112e557604052565b6001600160401b0381116112e55760051b60200190565b6001600160401b0381116112e557601f01601f191660200190565b929192611b0882611ae1565b91611b166040519384611aa9565b8294818452818301116112d2578281602093845f960137010152565b9080601f830112156112d257816020611b4d93359101611afc565b90565b9181601f840112156112d2578235916001600160401b0383116112d2576020808501948460051b0101116112d257565b90600182811c92168015611bae575b6020831014611b9a57565b634e487b7160e01b5f52602260045260245ffd5b91607f1691611b8f565b805180835260209291819084018484015e5f828201840152601f01601f1916010190565b9060208252602061010060a060e08501938051848701528381015160020b6040870152604081015160020b6060870152606081015160020b6080870152608081015160020b8287015201519360c0808201528451809452019201905f5b818110611c465750505090565b8251845260209384019390920191600101611c39565b908160209103126112d2575180151581036112d25790565b80358252611c8460208201611a9b565b60020b6020830152611c9860408201611a9b565b60020b6040830152611cac60608201611a9b565b60020b6060830152611cc060808201611a9b565b60020b608083015260a0810135601e19823603018112156112d25701602081359101916001600160401b0382116112d2578160051b9182360384136112d25760c060a0830181905282018190526001600160fb1b03106112d2578160e09384830137010190565b6020818303126112d2578051906001600160401b0382116112d25701906020828203126112d25760405191602083018381106001600160401b038211176112e5576040528051906001600160401b0382116112d2570181601f820112156112d257805190611d9482611aca565b92611da26040519485611aa9565b82845260208085019360061b830101918183116112d257602001925b828410611dce5750505050815290565b6040848303126112d25760405190604082018281106001600160401b038211176112e55760405284516001600160a01b03811681036112d25782526020850151906bffffffffffffffffffffffff821682036112d25782602092836040950152815201930192611dbe565b8051821015611e4d5760209160051b010190565b634e487b7160e01b5f52603260045260245ffd5b5f19811461166d5760010190565b90611e7982611aca565b611e866040519182611aa9565b8281528092611e97601f1991611aca565b0190602036910137565b6033546001600160a01b03163303611eb557565b606460405162461bcd60e51b815260206004820152602060248201527f4f776e61626c653a2063616c6c6572206973206e6f7420746865206f776e65726044820152fd5b6065546001600160a01b03163303611f0d57565b638e79fdb560e01b5f5260045ffd5b9190811015611e4d5760051b8101359060be19813603018212156112d2570190565b903590601e19813603018212156112d257018035906001600160401b0382116112d257602001918160061b360383136112d257565b9190820180921161166d57565b356001600160a01b03811681036112d25790565b9035601e19823603018112156112d25701602081359101916001600160401b0382116112d2578160061b360383136112d257565b916020908281520191905f905b808210611fe25750505090565b909192833560018060a01b0381168091036112d25781526020840135906bffffffffffffffffffffffff82168092036112d257604081600193602083940152019401920190611fd5565b9190811015611e4d5760051b81013590609e19813603018212156112d2570190565b6040516323b872dd60e01b60208201526001600160a01b03928316602482015292909116604483015260648083019390935291815261209791612092608483611aa9565b612157565b565b604051636eb1769f60e11b81523060048201526001600160a01b0383166024820152602081806044810103816001600160a01b0386165afa9081156112c7575f91612123575b50612097936120ed91611f73565b60405163095ea7b360e01b60208201526001600160a01b0390931660248401526044808401919091528252612092606483611aa9565b90506020813d60201161214f575b8161213e60209383611aa9565b810103126112d257516120976120df565b3d9150612131565b906121d69160018060a01b03165f8060405193612175604086611aa9565b602085527f5361666545524332303a206c6f772d6c6576656c2063616c6c206661696c6564602086015260208151910182855af13d1561225e573d916121ba83611ae1565b926121c86040519485611aa9565b83523d5f602085013e612262565b8051908115918215612244575b5050156121ec57565b60405162461bcd60e51b815260206004820152602a60248201527f5361666545524332303a204552433230206f7065726174696f6e20646964206e6044820152691bdd081cdd58d8d9595960b21b6064820152608490fd5b6122579250602080918301019101611c5c565b5f806121e3565b6060915b919290156122c45750815115612276575090565b3b1561227f5790565b60405162461bcd60e51b815260206004820152601d60248201527f416464726573733a2063616c6c20746f206e6f6e2d636f6e74726163740000006044820152606490fd5b8251909150156122d75750805190602001fd5b60405162461bcd60e51b8152602060048201529081906122fb906024830190611bb8565b0390fdfea26469706673582212207c5bbada9328a8dcd9cbf0d4ccb1e94c41083869b7e452ab33346f80d8073ae864736f6c634300081b0033",
        "linkReferences": {}
    },
    "methodIdentifiers": {
        "addPendingAdmin(address)": "279432eb",
        "allTaskHashes(uint32)": "2d89f6fc",
        "allTaskResponses(address,uint32)": "c20bab7f",
        "allocationManager()": "ca8aa7c7",
        "avsDirectory()": "6b3aa72e",
        "createAVSRewardsSubmission(((address,uint96)[],address,uint256,uint32,uint32)[])": "fce36c7d",
        "createNewTask(bytes32,int24,int24,int24,int24,uint256[])": "35943922",
        "createOperatorDirectedAVSRewardsSubmission(((address,uint96)[],address,(address,uint256)[],uint32,uint32,string)[])": "a20b99bf",
        "deregisterOperatorFromAVS(address)": "a364f4da",
        "deregisterOperatorFromOperatorSets(address,uint32[])": "c1a8e2c5",
        "getOperatorRestakedStrategies(address)": "33cfb7b7",
        "getRestakeableStrategies()": "e481af9d",
        "hook()": "7f5a7c7b",
        "latestTaskNum()": "8b00ce7c",
        "owner()": "8da5cb5b",
        "registerOperatorToAVS(address,(bytes,bytes32,uint256))": "9926ee7d",
        "removeAdmin(address)": "1785f53c",
        "removeAppointee(address,address,bytes4)": "ba550880",
        "removePendingAdmin(address)": "9da16d8e",
        "renounceOwnership()": "715018a6",
        "respondToTask((bytes32,int24,int24,int24,int24,uint256[]),uint32,(uint256,uint256,uint256,uint256,uint256),bytes)": "c90e443d",
        "rewardsInitiator()": "fc299dee",
        "setAVSRegistrar(address)": "f25f1610",
        "setAppointee(address,address,bytes4)": "1fdb0cfd",
        "setClaimerFor(address)": "a0169ddd",
        "setRewardsInitiator(address)": "3bc28c8c",
        "stakeRegistry()": "68304835",
        "transferOwnership(address)": "f2fde38b",
        "updateAVSMetadataURI(string)": "a98fb355"
    },
    "id": 56
}